:101AF500312E33204950532D535049203234302A4A
:101B0500333230004C43445F573A004C43445F48FE
:021B15003A0094
:101B8D004100580042005D3CB642005F2B9D420073
:081B9D0059008C42005B00922C
:101BBB007BFF7D377C007E002290000E7403F07D4E
:041BCB00377C002241
:1014000074FF900088F0A3F090008674F8F0A3E4D5
:10141000F0FBFDFC7F0AFE12134F7B017F2D12149F
:101420009F7B027F5012149F7B037F731214A77B54
:10143000047F961214A712148D7A1B79097F0A1261
:101440001BBB1215D890000A120BC1000000F0124D
:101450001BC47F467E001215497A1B79107F6E12DD
:101460001BBB1215D890000A120BC1000000F0122D
:101470001BC47FA07E0012154912148D900002E457
:0C148000F0A3740AF0A3E4F0A3744BF096
:10148C00227BFF7A1A79F57D237C007F0A7E00127D
:10149C0015D822E4FDFCFE12134F22E4FDFCFE12D3
:0314AC00134F22B9
:10129300900074E4F0A37402F0E4900072F0A3F001
:1012A300900072E0FAA3E0FB7C007D28FFAE0212FF
:1012B3000A4CC006C007A3E0FEA3E0FF120A4CC01D
:1012C30006C007AF03AE02120A4CEF2427FBE43E2D
:1012D300FA900074E0FEA3E0FF120A4CEF2427FF0C
:1012E300E43E900024F0A3EFF0D005D004D007D063
:1012F300061219AAE4FFFE0FBF00010EBE06F8BFD7
:1013030040F5900073E004F07006900072E004F082
:10131300C3900073E09406900072E0648094805060
:10132300030212A3900075E004F07006900074E0CD
:1013330004F0C3900075E09406900074E064809418
:0B13430080500302129CE4900058F060
:01134E00227C
:1016CE00E4F5B1F5B1F5B3F5B4F5ACF5ADFF7EC209
:1016DE007D01FC121B17438E0212118574FFFFFE53
:1016EE00121818E4900088F0A3F074FF900086F0B2
:1016FE00A3F0121400900000E014F0C292121734FE
:10170E00D2921217347F55121BF075ACFFE4F5AD73
:10171E00F5ACF5AD30B004D2908002C290900000CE
:06172E00E02406F080CF6C
:0C1734007F2C7E017D007C001219372202
:1018B500900002E0F8A3E0F9A3E0FAA3E0FB7F4083
:1018C5007E427D0F7C00120AFFC374FF9FFF2274C6
:1018D500FF9EFEE49DFDE49CFC7808120BA28FC6DA
:1018E5002253B1BF53B2BF53B17F53B27F759852E4
:0118F50022D0
:101AA0001218E6438920438780438E1053C4DFAB6E
:101AB00007AA06A905A8047F407E427D0F7C00127C
:0B1AC0000AFFEF04F404F58DD28E2223
:101B1700900002120BB51218E643878053C4F843AE
:101B2700C4201218B51218D41218B58FC543C408AB
:011B3700228B
:071BE8003098FDAF99C2988F
:011BEF0022D3
:081BF000C2998F993099FD2282
:101A7300900076120BB553B1FB53B2FB53B3BF5374
:101A8300B4BF75F85253C4F89000761218B8121800
:0D1A9300D49000761218B88FC543C4082205
:071BF80030F8FDAF9AC2F8BE
:011BFF0022C3
:081C0000C2F98F9A30F9FD22B0
:101A4500E0FCA3E0FDA3E0FEA3E024FFFFEE34FFEE
:101A5500FEED34FFFDEC34FFFC22E4FFFEFDFCE06F
:0E1A6500F8A3E0F9A3E0FAA3E0FBC3020B91A3
:101B3800538EF7438901D28CEF4E6012758AF37584
:101B48008CFF308DFDC28DEF1F70ED1E80EAC28CB8
:011B5800226A
:1019E10090007A120BB5538EF7438901D28C900087
:1019F1007A121A5F6019758ACA758CFA308DFDC228
:101A01008D90007A121A4590007A120BB580DFC2D0
:021A11008C2225
:101A130090007E120BB5538EEF438910D28E900047
:101A23007E121A5F6019758BCA758DFA308FFDC2ED
:101A33008F90007E121A4590007E120BB580DFC294
:021A43008E22F1
:10193700900002120BB553C9BF53C9DF43C910D278
:10194700CAE4FFFEFDFC900002121A64601975CC10
:101957006075CDF030CFFDC2CF900002121A4590CE
:0A1967000002120BB580DAC2CA229A
:10197100900082120BB575C40243C408E4FFFEFD5A
:10198100FC900082121A64601C75C56075C6F0E592
:10199100C430E4FB53C4EF900082121A45900082D8
:0919A100120BB580D753C4F722E4
:030000000214AF38
:1014AF00787FE4F6D8FD9000007FFF7E03E4F0A381
:0A14BF00DFFCDEFA7581200215043F
:1000030000000000000000000080000000800100EC
:1000130000800100008001000080010000800100D9
:100023001080010CF0FFFF0F3080010430800104C9
:1000330030800104308001043080010430800104E9
:100043003080010430800104F0FFFF073080010499
:100053003080010400800100008001000080010065
:100063000080010000800100008001000080010089
:1000730000800100008001000080000000000000FB
:1000830000000000000000000000000000018001EB
:1000930000FFFF01000380010003800100FFFF0157
:1000A300000380010003800100FFFF010081810044
:1000B300000003000000031CFCFFFF3F00004000A2
:1000C3000003C00100FFFF010003C0000003C000E4
:1000D3000003C00000FFFF00000141000004010015
:1000E300000E710000078101800101076000010E0D
:1000F3001898011C04E0011800C000000000000073
:10010300000000000000000000000008F0FFFF1FD7
:100113003000000C3000000C3000100C30FE3F0C9F
:100123003004000C3000000C3000000C3000000CD8
:100133003000C00CF0FFFF0D3030060E3030060CDF
:100143003010060C3010060C3010060C3018860CDC
:100153003018860C3008060D300C860D3006EE0F75
:100163003002FC0D3001000CF000000C3000000CDC
:10017300F0FFFF0F3000000C10000004000000002F
:10018300000000000000000000C0000000C00100EB
:1001930000C0000000C0000000C0000000C000005C
:1001A300E0FFFF0360C0000360C0000360C0000302
:1001B30060C0000360C0000360C00003E0FFFF03F2
:1001C30060C0000360C0000360C0000360C00003A0
:1001D30060C00003E0FFFF0360C0000160C00000D7
:1001E30000C0000800C0001000C0001000C00018CC
:1001F30000C001380080FF1F000000000000000065
:1002030000000000000000000000000000000003E8
:10021300C0FFFF07000080070000C000000060006F
:100223000000180000000C000080030000800300A1
:1002330000800100008001080080011CFCFFFF3FDB
:1002430000800100008001000080010000800100A7
:100253000080010000800100008001000080010097
:100263000080010000800100008001000080010087
:1002730000FC010000E0000000400000000000005E
:10028300000000000000000000000000000000006B
:1002930000000008080808080808000018180000F3
:1002A30000486C2412000000000000000000000061
:1002B3000000002424247F1212127F121212000065
:1002C3000000081C2A2A0A0C1828282A2A1C0808B5
:1002D30000000022251515152A58545454220000F5
:1002E3000000000C1212120A76252911916E0000EB
:1002F30000060604030000000000000000000000E8
:1003030000402010100808080808081010204000BA
:10031300000204080810101010101008080402004E
:100323000000000008086B1C1C6B0808000000009C
:1003330000000000080808087F08080808000000FB
:100343000000000000000000000000000606040397
:100353000000000000000000FE000000000000009C
:10036300000000000000000000000000060600007E
:1003730000008040402020101008080404020200FE
:100383000000001824424242424242422418000024
:10039300000000080E08080808080808083E0000C6
:1003A3000000003C4242422020100804427E00002C
:1003B3000000003C4242201820404042221C000022
:1003C300000000203028242422227E2020780000F0
:1003D3000000007E0202021A26404042221C000056
:1003E300000000382402021A264242422418000068
:1003F3000000007E222210100808080808080000E8
:100403000000003C4242422418244242423C000085
:10041300000000182442424264584040241C00005B
:100423000000000000001818000000001818000069
:10043300000000000000000800000000000808049D
:1004430000000040201008040204081020400000AF
:100453000000000000007F0000007F00000000009B
:1004630000000002040810204020100804020000CD
:100473000000003C424246402010100018180000C3
:100483000000001C225A555555552D42221C0000D0
:100493000000000808181414243C224242E700001C
:1004A3000000001F2222221E22424242221F00007D
:1004B3000000007C4242010101010142221C0000B4
:1004C3000000001F2242424242424242221F0000D9
:1004D3000000003F4212121E12120242423F00006D
:1004E3000000003F4212121E121202020207000015
:1004F3000000003C2222010101712122221C000084
:10050300000000E7424242427E42424242E700008C
:100513000000003E0808080808080808083E000014
:100523000000007C10101010101010101010110F8C
:100533000000007722120A0E0A121222227700000C
:10054300000000070202020202020202427F0000D0
:1005530000000077363636362A2A2A2A2A6B00000C
:10056300000000E346464A4A525252626247000084
:100573000000001C2241414141414141221C000035
:100583000000003F424242423E02020202070000D4
:100593000000001C2241414141414D53321C600087
:1005A3000000003F4242423E1212222242C7000094
:1005B3000000007C4242020418204042423E0000F8
:1005C3000000007F4908080808080808081C000004
:1005D300000000E74242424242424242423C0000A3
:1005E300000000E7424222242414141808080000E3
:1005F3000000006B49494949555536222222000023
:10060300000000E7422424181818242442E70000BD
:10061300000000772222141408080808081C0000B0
:100623000000007E2120101008040442423F000015
:100633000078080808080808080808080808780067
:100643000000020204040808081010202020404083
:10065300001E1010101010101010101010101E009B
:10066300003844000000000000000000000000000B
:10067300000000000000000000000000000000FF78
:100683000006080000000000000000000000000059
:10069300000000000000003C4278444242FC00009D
:1006A300000000030202021A26424242261A0000F8
:1006B3000000000000000038440202024438000039
:1006C30000000060404040784442424264D8000049
:1006D300000000000000003C427E0202423C000099
:1006E300000000F08808087E08080808083E00009B
:1006F300000000000000007C22221C023C42423C1D
:10070300000000030202023A4642424242E700006E
:100713000000000C0C00000E08080808083E00004A
:100723000000003030000038202020202020221E2E
:100733000000000302020272120A1612227700005E
:100743000000000E0808080808080808083E000012
:10075300000000000000007F9292929292B7000086
:10076300000000000000003B4642424242E7000016
:10077300000000000000003C42424242423C0000B4
:10078300000000000000001B26424242221E020716
:10079300000000000000007844424242447840E0F8
:1007A30000000000000000774C040404041F000054
:1007B300000000000000007C42023C40423E00007A
:1007C300000000000008083E080808080830000080
:1007D30000000000000000634242424262DC00006D
:1007E30000000000000000E7422424140808000071
:1007F30000000000000000EB49495555222200008B
:10080300000000000000007624181818246E000071
:1008130000000000000000E7422424141808080721
:10082300000000000000007E22100808447E000043
:1008330000C0202020202010202020202020C000C5
:1008430010101010101010101010101010101010A5
:100853000006080808080810080808080808060021
:100863000C32C20000000000000000000000000085
:100873000000F010101010FF10101010F000000016
:100883000000000000000000000000000000000065
:1008930000000F04040404FF040404040F00000018
:1008A3000000000000000000000000000000000045
:1008B3004040405F555555755555555F4040400084
:1008C3000000000000000000000000000000000025
:1008D3000040200F094989790909090F20400000C8
:1008E3000000000000000000000000000000000005
:1008F30000FE02424ACA4A4ACA4A4A4202FE00006B
:1009030000000000000000000000000000000000E4
:1009130000FF40504C4340404F50505C40FF0000AC
:1009230000000000000000000000000000000000C4
:100933000000F888888888FF88888888F800000085
:1009430000000000000000000000000000000000A4
:1009530000001F080808087F888888889F80F000A7
:100963000000000000000000000000000000000084
:1009730080828282828282E2A2928A868280800040
:100983000000000000000000000000000000000064
:10099300000000000040807F000000000000000015
:1009A3000000000000000000000000000000000044
:1009B3002424A4FEA3220022CC0000FF0000000098
:1009C3000000000000000000000000000000000024
:1009D300080601FF00010404040404FF02020200EC
:1009E3000000000000000000000000000000000004
:1009F300101010FF109008888888FF8888880800E6
:100A030000000000000000000000000000000000E3
:100A13000444827F01808040432C1028468180005B
:100A230000000000000000000000000000000000C3
:100EF900EEF0A3EFF0A3ECF0A3EDF022900052E0A6
:100F0900FEA3E0FFC390004FE09FFF90004EE09EDC
:100F1900900054FEE0FCA3E0FD22E0FCA3E0FD907C
:100F29000070E0FFA3E090002CCFF0A3EFF0229037
:100F39000016E075F010A4FFE97C002FFFEC35F0F6
:100F4900FE74832FF58274023EF583E493900018B2
:100F5900F0E4A3F02275F008A4FF900007E02FFF4A
:100F6900900006E090000835F0FEE0FCA3E0FD22C9
:100F7900900054E0FEA3E0FF90004FE02FFF9000A7
:100F89004EE03E22FFE0FCA3E0FDD39FEE6480F833
:100F9900EC64809822E0FBA3E0FAA3E0F9020A33AB
:100FA900900054E0FEA3E0FF22FFE43EFE900057CC
:100FB900E02FF0900056E03EF022C3E49FFFE49E4C
:100FC900F0A3EFF022900024FFE43EF0A3EFF0221B
:100FD900E0FCA3E0FDA3E0FEA3E0FF22121BD97F02
:100FE90011121BD97F13021BD9121BD97F1F021B98
:100FF900D9E0FEA3E0FFD39400EE6480948022E060
:10100900FFA3E0900086CFF0A3EFF022120AFFE4DD
:101019007B0AFAF9F8020AFFE0FF121BD9A3E0FFE5
:10102900021BD9E0FEA3E0FFA3E0FCA3E0FD22241C
:1010390030FBE4900017F022E475F001020A5EFB30
:10104900E43AFAA3E0FEA3E022A3EAF0A3EBF0223C
:0A105900ED9FFFEC9EF0A3EFF022E4
:101B5900EF4E60157D087C07ED1DAA0470011C4A33
:091B690070F6EF1F70EA1E80E720
:011B72002250
:101B7300E4FEC290EF30E704D2808002C280D290AC
:091B8300EF25E0FF0EEEB408E9C5
:011B8C002236
:0A1BCF00121C087FD0121BD97F04FE
:051BD900D293021B7312
:051BA600E0FEA3E0FFDA
:101BAB00AD07AC06D293ECFF121B73AF05021B7390
:051C0800C293021B73F2
:0A1BDE00121C08AE04AF05021BAB99
:1019AA0090001EEEF0A3EFF07F2A121C0890001E92
:1019BA00121021EAFF121BD9AF03121BD97F2B1277
:1019CA001C08ECFF121BD9AF05121BD99000241278
:0719DA0010217F2C021C0804
:10118500C2947F147E00121B59D2947F147E0012E4
:101195001B59D2957F36121C08E4FF121BD97F3AE2
:1011A500121C087F05121BD97FB2121C087F0C1276
:1011B5001BD97F0C121BD9E4FF121BD97F33121BDD
:1011C500D97F33121BD97FB7121C087F35121BD963
:1011D5007FBB121C087F19121BD97FC0121C087F08
:1011E5002C121BD97FC2121C087F01121BD97FC389
:1011F500121C087F12121BD97FC4121C087F2012F3
:101205001BD97FC6121C087F0F121BD97FD0121C59
:10121500087FA4121BD97FA1121BD97FE0121BCF17
:101225007F0D120FE57F2B121BD97F3F121BD97F34
:1012350054121BD97F4C121BD97F18121BD97F0D55
:10124500121BD97F0B120FF27F23121BD97FE112DC
:101255001BCF7F0C120FE57F2C121BD97F3F121B72
:10126500D97F44121BD97F51121BD97F2F120FF240
:101275007F1F121BD97F20121BD97F23121BD97FF9
:0E12850021121C087F11121C087F29021C0870
:0818180090000DEEF0A3EFF0CB
:10182000900024E4F0A374EFF0FB7A00E4FDFCFFE9
:10183000FE1219AAE490000FF0A3F0E4FBFA900066
:101840000D121BA60BBB00010AEB64F04A70EF906F
:101850000010E004F0700690000FE004F0C3900068
:0C18600010E094F090000FE0940040CFE6
:01186C002259
:10134F00900006EEF0A3EFF090000AEBF09000088B
:05135F00ECF0A3EDF02D
:1013640090000D74FFF0A37400F0A37403F09000D8
:1013740006E0FAA3E0FFAE02C006C007241F121065
:1013840048241F120FCED007D0061219AA90000AC3
:10139400E075F080A4FF90000EE5F08FF0120A5E75
:1013A400E490000CF0E490000BF090000BE0FFC31D
:1013B4009408503590000D120F9EFD7C0074017E40
:1013C40000A807088005C333CE33CED8F9FFEE5CFE
:1013D400FEEF5D4E60059000868003900088121B2E
:1013E400A690000BE004F080C190000E1210419012
:0B13F400000CE004F0E0C3948040AA6D
:0113FF0022CB
:101ACB00AB07AA068D828C83C006C007AE83AF829C
:101ADB00900024EEF0A3EFF0D007D0061219AA90D5
:0A1AEB000086E0FEA3E0FF021BAB43
:10186D00AB07AA068D828C83EB24FFFFEA34FFFEC3
:10187D00C006C007E58224FFFDE58334FFFCEB24A1
:10188D0001FBE43AFAAE83AF82EF240190004812D7
:10189D000FD1900086E0FFA3E090004ACFF0A3EFB8
:0818AD00F0D007D00602165826
:09165800900042120EF91210522A
:10166100C007A3E0FFA3E0900024CFF0A3EFF0D0E8
:10167100071219AA900044E0FFA3E090004CCFF0BC
:10168100A3EFF0900048E0FEA3E0FFD390004DE00F
:101691009F90004CE09E5034900042E0FEA3E0FB9E
:1016A100AA06C3900047E09B900046E09A400D9047
:1016B100004A121BA60BBB00010A80E690004DE018
:0C16C10004F070BF90004CE004F080B713
:0116CD0022FA
:060BF200900026120EF92E
:100BF800E4900030F0A3F0A3F0A3F0900026E0FE0C
:100C0800A3E0FFC3EB9FFFEA9E900034F0A3EFF050
:100C1800900028E0FAA3E0FBC390002DE09BFE9033
:100C2800002CE09A900036F0A3CEF0900026E0FF6A
:100C3800A3E090003ECFF0A3EFF0121052900034E2
:100C4800120FFA400A90003AE4F0A304F0801AEF79
:100C58004E700890003AF0A3F0800E74FF90003AAE
:100C6800F0A3F0900034120FC3900036120FFA4030
:100C78000A90003CE4F0A304F0801AEF4E7008904C
:100C8800003CF0A3F0800E74FF90003CF0A3F090BD
:100C98000036120FC3900036E0FEA3E09000341235
:100CA8000F8D9000384007ECF0A3EDF08005EEF0D2
:100CB800A3EFF0E490002EF0A3F0900039E02401B7
:100CC800FF900038E03400FED390002FE09F9000A2
:100CD8002EE09E4003020D7590003E12102C121A51
:100CE800CB900034E0FEA3E0FF900031E02FF090BD
:100CF8000030E03EF0900036E0FEA3E0FF900033C5
:100D0800E02FF0900032E03EF0900038E0FEA3E0E3
:100D1800900030120F8D401A900030121059900038
:100D28003AE0FEA3E0FF90003FE02FF090003EE0A5
:100D38003EF0900038E0FEA3E0FF900032120F8EE4
:100D4800401A90003212105990003CE0FEA3E0FFD8
:100D5800900041E02FF0900040E03EF090002FE03E
:0D0D680004F0700690002EE004F0020CC2B2
:010D7500225B
:1017400090006EEAF0A3EBF090006A120EF9C00769
:10175000A3E0FAA3E0FB90006C120F2BD007120B52
:10176000F290006AE0FAA3E0FBFFAE02C007A3120A
:101770000F23D007120BF2900070E0FCA3E0FD9065
:10178000006EE0FAA3E0FBA3120F2B90006AE0FECC
:10179000A3E0FF120BF290006EE0FAA3E0FBFFAEB5
:0E17A00002C00790006C120F23D007020BF25C
:060D760090004E120EF980
:100D7C00E4A3F0A3F0EBFF7E00A3EEF0A3EFF025CD
:100D8C00E0FFEE33FEC374039F900057F0E49E9097
:100D9C000056F0120FA9D3900053E09FEE6480F838
:100DAC00900052E06480984003020E7C120EA9124F
:100DBC000F79900052120F1C120EE8120F059000C2
:100DCC0051E02DFD900050E03CFC121ACB120FA903
:100DDC00120EA9120F05120EE8120F79120ECF90F7
:100DEC000052120F7C120F19C3900051E09DFD9020
:100DFC000050E09CFC121ACB120E7D120FA9C3906E
:100E0C00004FE09FFF90004EE09E120ECF900053DB
:100E1C00E004F07006900052E004F0C3900056E03D
:100E2C00648094805017900052E0FEA3E07802C3D7
:100E3C0033CE33CED8F92406120FB2802D120FA95F
:100E4C00C3900053E09FFF900052E09EFEEF7802AB
:100E5C00C333CE33CED8F9240A120FB2900055E02A
:100E6C0024FFF0900054E034FFF0120E7D020D9F31
:100E7C0022900052E0FEA3E0FF90004FE02FFF9085
:100E8C00004EE03EFE900054E0FCA3E0FD900051CB
:100E9C00E02DFD900050E03CFC121ACB22C39000D8
:100EAC004FE09FFF90004EE09EFE900052E0FCA3AE
:100EBC00E0FDC3900051E09DFD900050E09CFC12C1
:100ECC001ACB22FE900052E0FCA3E0FD900051E012
:100EDC002DFD900050E03CFC121ACB22C390005127
:0D0EEC00E09DFD900050E09CFC121ACB220E
:09106300900012120EF9A3EBF04B
:10106C00900012E0FEA3E0FF90001AEEF0A3EFF068
:10107C00900086E0FDA3E090001CCDF0A3EDF0D332
:10108C00EF94E0EE94004003021184900014E0FC15
:10109C00A3E0FD94E0EC9400400302118490001650
:1010AC00E024E0F0900012E0FAA3E0FFAE02C006EC
:1010BC00C0072407121048240F120FCED007D006F9
:1010CC001219AA900017E07062F9120F38900018EC
:1010DC00E030E00590001C8003900088121008900E
:1010EC000086121BA6900018E0C313F0900013E0CA
:1010FC0004F07006900012E004F0900019E004F087
:10110C00E0C3940840C790001AE0FFA3E0900012DF
:10111C00CFF0A3EFF0900015E004F07006900014EF
:10112C00E004F009E9641070A18047E4F9120F386B
:10113C00900019E0FFC394085033900018E030E0A1
:10114C001F900013E02FFF900012E03400FEE9FD29
:10115C00900015E02DFD900014E03400FC121ACB29
:10116C00900018E0C313F0A3E004F080C309E9B4C5
:08117C0010BB90001C121008CA
:011184002248
:0818F600900012EFF0A3EDF0E9
:1018FE00A3120BC100000001900013E0FF14F0EFE3
:10190E006020A3E0F8A3E0F9A3E0FAA3E0FB9000C7
:10191E0012E0FFE4FCFDFE120A74900014120BB5E7
:08192E0080D6900014120FD9BD
:01193600228E
:06154900900006120EF9ED
:10154F00E4900011F090000AA3120FDEE4FCFD906E
:10155F00000A120BB5E490000FF090000EE0FFA30D
:10156F00E0FEC39F5062C3EF9E14FD7F0A1218F670
:10157F00A804A905AA06AB0790000A120FD91210EA
:10158F0015900010EBF0A3E0702490000EE014FF14
:10159F00A3E0FEC39F5017A3E0700DEE120F5EE4A1
:1015AF00900017F07B2080149000117401F09000D0
:1015BF000FE0120F5E900010E012103812106390BF
:0815CF00000FE004F0021569B1
:0115D70022F1
:0917AE00900061120EF9121052B4
:1017B700E4900068F0900067E0F9A3E0FFC3995058
:1017C7004FC3E99F14FD7F0A1218F6A804A905AABA
:1017D70006AB07900065E0FEA3E0FFE4FCFD1210F6
:1017E70015AF03900069EFF0900068E075F008A46A
:1017F700FF900062E02FFF900061E0900063120FFE
:1018070070EB121038121063900068E004F080A5A6
:0118170022AE
:1015D800900006120EF9A3EBF0A3EAF0A3E9F0904D
:1015E800000A120F9E6068D3900007E094E0900014
:1015F80006E094004012E4F0A3F0900009E0241003
:10160800F0900008E03400F0D3900009E094E090F6
:101618000008E094004011E4900006F0A3F0A3F065
:10162800A3F0FF7EF812181890000612102CA312CF
:101638000F9E12103A121063900007E02408F090F1
:101648000006E03400F090000B1210410215E7226A
:1014C9000216CEE493A3F8E493A34003F68001F255
:1014D90008DFF48029E493A3F85407240CC8C33324
:1014E900C4540F4420C8834004F456800146F6DFF3
:1014F900E4800B0102040810204080901B8DE47EDB
:10150900019360BCA3FF543F30E509541FFEE493E7
:10151900A360010ECF54C025E060A840B8E493A3AE
:10152900FAE493A3F8E493A3C8C582C8CAC583CAD9
:10153900F0A3C8C582C8CAC583CADFE9DEE780BE91
:011BA500003F
:100A3300BB010689828A83E0225002E722BBFE02C1
:090A4300E32289828A83E49322F4
:100A4C00EF8DF0A4A8F0CF8CF0A428CE8DF0A42EBE
:020A5C00FE2278
:100A5E00C5F0F8A3E028F0C5F0F8E5821582700223
:060A6E001583E038F022C0
:100A7400E88FF0A4CC8BF0A42CFCE98EF0A42CFC21
:100A84008AF0EDA42CFCEA8EF0A4CDA8F08BF0A49F
:100A94002DCC3825F0FDE98FF0A42CCD35F0FCEBFE
:100AA4008EF0A4FEA9F0EB8FF0A4CFC5F02ECD39C3
:0F0AB400FEE43CFCEAA42DCE35F0FDE43CFC2230
:100AC30075F008758200EF2FFFEE33FECD33CDCCEA
:100AD30033CCC58233C5829BED9AEC99E58298406D
:100AE3000CF582EE9BFEED9AFDEC99FC0FD5F0D64A
:100AF300E4CEFBE4CDFAE4CCF9A88222B800C1B974
:100B03000059BA002DEC8BF084CFCECDFCE5F0CBB1
:100B1300F97818EF2FFFEE33FEED33FDEC33FCEBEA
:100B230033FB10D703994004EB99FB0FD8E5E4F9A5
:100B3300FA227818EF2FFFEE33FEED33FDEC33FC92
:100B4300C933C910D7059BE99A4007EC9BFCE99A86
:100B5300F90FD8E0E4C9FAE4CCFB2275F010EF2FCB
:100B6300FFEE33FEED33FDCC33CCC833C810D707CB
:100B73009BEC9AE899400AED9BFDEC9AFCE899F806
:0E0B83000FD5F0DAE4CDFBE4CCFAE4C8F92299
:100B9100EB9FF5F0EA9E42F0E99D42F0E89C45F0BA
:010BA1002231
:100BA200E8600FECC313FCED13FDEE13FEEF13FF31
:030BB200D8F12255
:0C0BB500ECF0A3EDF0A3EEF0A3EFF022B3
:100BC100A8828583F0D083D082120BD8120BD81261
:100BD1000BD8120BD8E473E493A3C583C5F0C58386
:100BE100C8C582C8F0A3C583C5F0C583C8C582C87E
:010BF10022E1
:00000001FF
