:1001D500E4F5B1F5B1F5B3F5B4F5ACF5ADFF7EC217
:1001E5007D01FC1200F5438E027509201508C292A7
:1001F5007F2C7E017D007C0012027ED2927F2C7EB8
:10020500017D007C0012027E7F551203DC75ACFF78
:10021500E4F5ADF5ACF5AD30B004D2908002C290F6
:0802250074062508F50880C4E9
:01022D0022AE
:1003620053B1BF53B2BF53B17F53B27F759852435B
:100372008920438780438E1053C4DFAB07AA06A9A6
:1003820005A8047F407E427D0F7C0012003FEF04EF
:07039200F404F58DD28E2268
:1000F5008F0D8E0C8D0B8C0A53B1BF53B2BF53B10C
:100105007F53B27F75985243878053C4F843C42008
:10011500AB0DAA0CA90BA80A7F407E427D0F7C007F
:1001250012003FC374FF9FFF74FF9EFEE49DFDE434
:100135009CFC78081200E28FC6AB0DAA0CA90BA88F
:100145000A7F407E427D0F7C0012003FC374FF9FF3
:10015500FF74FF9EFEE49DFDE49CFCEFE48FC54328
:03016500C40822A9
:0703D4003098FDAF99C298BB
:0103DB0022FF
:0803DC00C2998F993099FD22AE
:100168008F118E108D0F8C0E53B1FB53B2FB53B30E
:10017800BF53B4BF75F85253C4F8AB11AA10A90FF6
:10018800A80E7F407E427D0F7C0012003FC374FFA3
:100198009FFF74FF9EFEE49DFDE49CFC780812001E
:1001A800E28FC6AB11AA10A90FA80E7F407E427D30
:1001B8000F7C0012003FC374FF9FFF74FF9EFEE494
:0D01C8009DFDE49CFCEFE48FC543C40822BC
:0703E40030F8FDAF9AC2F8EA
:0103EB0022EF
:0803EC00C2F98F9A30F9FD22DD
:10039900538EF7438901D28CEF4E6012758AF3753B
:1003A9008CFF308DFDC28DEF1F70011E80EAC28C5B
:0103B9002221
:1002CC008F158E148D138C12538EF7438901D28C9B
:1002DC00E4FFFEFDFCAB15AA14A913A812C312006F
:1002EC00D16025758ACA758CFA308DFDC28D74FF6C
:1002FC002515F515E51434FFF514E51334FFF51346
:0B030C00E51234FFF51280C8C28C22FD
:100317008F198E188D178C16538EEF438910D28E36
:10032700E4FFFEFDFCAB19AA18A917A816C3120013
:10033700D16025758BCA758DFA308FFDC28F74FF1A
:100347002519F519E51834FFF518E51734FFF517E2
:0B035700E51634FFF51680C8C28E22A8
:10027E008F0D8E0C8D0B8C0A53C9BF53C9DF43C92A
:10028E0010D2CAE4FFFEFDFCAB0DAA0CA90BA80A06
:10029E00C31200D1602575CC6075CDF030CFFDC294
:1002AE00CF74FF250DF50DE50C34FFF50CE50B3481
:0E02BE00FFF50BE50A34FFF50A80C8C2CA221C
:10022E008F1D8E1C8D1B8C1A75C40243C408E4FFEF
:10023E00FEFDFCAB1DAA1CA91BA81AC31200D1609F
:10024E002B75C56075C6F0E5C45410641070F85374
:10025E00C4EF74FF251DF51DE51C34FFF51CE51BD1
:10026E0034FFF51BE51A34FFF51A80C253C4F7228A
:030000000203BA3E
:1003BA00787FE4F6D8FD9000007FFF7E03E4F0A387
:0A03CA00DFFCDEFA7581200201D588
:1000030075F008758200EF2FFFEE33FECD33CDCCB4
:1000130033CCC58233C5829BED9AEC99E582984037
:100023000CF582EE9BFEED9AFDEC99FC0FD5F0D614
:10003300E4CEFBE4CDFAE4CCF9A88222B800C1B93E
:100043000059BA002DEC8BF084CFCECDFCE5F0CB7C
:10005300F97818EF2FFFEE33FEED33FDEC33FCEBB5
:1000630033FB10D703994004EB99FB0FD8E5E4F970
:10007300FA227818EF2FFFEE33FEED33FDEC33FC5D
:10008300C933C910D7059BE99A4007EC9BFCE99A51
:10009300F90FD8E0E4C9FAE4CCFB2275F010EF2F96
:1000A300FFEE33FEED33FDCC33CCC833C810D70796
:1000B3009BEC9AE899400AED9BFDEC9AFCE899F8D1
:0E00C3000FD5F0DAE4CDFBE4CCFAE4C8F92264
:1000D100EB9FF5F0EA9E42F0E99D42F0E89C45F085
:0100E10022FC
:1000E200E8600FECC313FCED13FDEE13FEEF13FFFC
:0300F200D8F12220
:00000001FF
