:100A5B004E37364530303320425244003230313835
:100A6B002F31302F32390041534349493A00434F1C
:100A7B0044453A000003050911FF118905C300E045
:100A8B0000F000F8000000000000004428FF11AA4D
:100A9B004400000000000000000000000000000007
:100AAB00000000000000000000000000000000003B
:100ABB00000000000000000000000000000000002B
:100ACB000000000000000000000000000000830197
:100ADB003844829292740183000000000000007C75
:100AEB0044FF017D7D7D017D7D7D7D017D7D7D7D56
:100AFB007D01FF000000000000010001000100016A
:100B0B0000010001000000000000000000010100D6
:100B1B0000000000000000000000000000000000CA
:100B2B0000000000000000000000000000000000BA
:100B3B0000000000000000000000000000000000AA
:100B4B000000000000000000000000000000010198
:100B5B000000000000000101000000000000000088
:100B6B00000101010101010101010101010101016B
:100B7B000101010000000000000000000000000067
:100B8B00000000000000000000000000000000005A
:100B9B003F3F0303F31311111111111101F11161F6
:100BAB0081010101816111F1010101014141F1015A
:100BBB0001010101C1211111111121C1010101011A
:100BCB004141F1010101010101010101011111116A
:100BDB001111D33303033F3F00000000000000005E
:100BEB0000000000000000000000000000000000FA
:100BFB0000000000000000000000000000000000EA
:100C0B0000000000000000000000000000000000D9
:100C1B00E0E000007F01010101010100007F000005
:100C2B00010618060100007F0000000040407F40D5
:100C3B00400000001F2040404040201F00000000EB
:100C4B0040407F404000000000600000000040304A
:100C5B000C0300000000E0E00000000000000000BA
:100C6B000000000000000000000000000000000079
:100C7B000000000000000000000000000000000069
:100C8B000000000000000000000000000000000059
:100C9B00070706060606040404844444448404043B
:100CAB00844444448404040484C404040404844439
:100CBB004444840404040404844444448404040429
:100CCB000404844444448404048444444484040459
:100CDB0004040606060607070000000000000000DB
:100CEB0000000000000000000000000000000000F9
:100CFB0000000000000000000000000000000000E9
:100D0B0000000000000000000000000000000000D8
:100D1B000000000000000000001018141211000069
:100D2B000F1010100F000000101F10000000081013
:100D3B0012120D00001800000D1212120D000018F7
:100D4B0000001018141211000010181412110000DA
:100D5B000000000000000000000000000000000088
:100D6B000000000000000000000000000000000078
:100D7B000000000000000000000000000000000068
:100D8B000000000000000000000000000000000058
:100D9B000000000000000000000000000000000048
:100DAB000000000000000000000000000000000038
:100DBB008080808080808080000000000000000028
:100DCB000000000000000000000000000000000018
:100DDB000000000000000000000000000000000008
:100DEB0000000000000000000000000000000000F8
:100DFB0000000000007F030C300C037F0000385410
:100E0B00545800007C04047800003C40407C0000F7
:100E1B0000000000000000000000000000000000C7
:100E2B0000000000000000000000000000000000B7
:100E3B00FFAAAAAA280800FF00000000000000007B
:100E4B000000000000000000000000000000000097
:100E5B00000000000000000000000000007F030CF9
:100E6B00300C037F0000264949493200007F020401
:100E7B0008107F000003050911FF118905C300E06D
:100E8B0000F000F8000000000000004428FF11AA49
:100E9B004400000000000000000000000000000003
:100EAB000000000000000000000000000000000037
:100EBB000000000000000000000000000000000027
:100ECB000000000000000000000000000000830193
:100EDB003844829292740183000000000000007C71
:100EEB0044FF017D7D7D7D017D7D7D7D017D7D7D52
:100EFB007D01FF0000000000000100010001000166
:100F0B0000010001000000000000000000010100D2
:100F1B0000000000000000000000000000000000C6
:100F2B0000000000000000000000000000000000B6
:100F3B0000000000000000000000000000000000A6
:100F4B000000000000000000000000000000010194
:100F5B000000000000000101000000000000000084
:100F6B000001010101010101010101010101010167
:100F7B000101010000000000000000000000000063
:100F8B000000000000000000000000000000000056
:100F9B00000000F80808080808080800F818608026
:100FAB00000000806018F80000002020F80000000E
:100FBB00000000E0100808080810E00000002020E6
:100FCB00F800000000000000000000000008080806
:100FDB0008088868180000000000000000000000EE
:100FEB0000000000000000000000000000000000F6
:100FFB0000000000000000000000000000000000E6
:10100B0000000000000000000000000000000000D5
:10101B000000007F01010101010100007F000001C0
:10102B000618060100007F00000040407F40400092
:10103B000000001F2040404040201F0000004040A7
:10104B007F404000000000006000000000000060D6
:10105B001806010000000000000000000000000066
:10106B000000000000000000000000000000000075
:10107B000000000000000000000000000000000065
:10108B000000000000000000000000000000000055
:10109B0000000000000000000040202020C00000E5
:1010AB00E0202020E000000040E000000000602075
:1010BB002020E00000000000E0202020E0000000E5
:1010CB00000040202020C0000040202020C0000055
:1010DB000000000000000000000000000000000005
:1010EB0000000000000000000000000000000000F5
:1010FB0000000000000000000000000000000000E5
:10110B0000000000000000000000000000000000D4
:10111B000000000000000000000C0A0A090C00008F
:10112B000F0808080F000000080F080000000C084B
:10113B0009090E00000C00000F0909090F00000C33
:10114B0000000C0A0A090C00000C0A0A090C00002A
:10115B000000000000000000000000000000000084
:10116B000000000000000000000000000000000074
:10117B000000000000000000000000000000000064
:10118B000000000000000000000000000000000054
:10119B000000000000000000000000000000000044
:1011AB000000000000000000000000000000000034
:1011BB008080808080808080000000000000000024
:1011CB000000000000000000000000000000000014
:1011DB000000000000000000000000000000000004
:1011EB0000000000000000000000000000000000F4
:1011FB0000000000007F030C300C037F000038540C
:10120B00545800007C04047800003C40407C0000F3
:10121B0000000000000000000000000000000000C3
:10122B0000000000000000000000000000000000B3
:10123B00FFAAAAAA280800FF000000000000000077
:10124B000000000000000000000000000000000093
:10125B00000000000000000000000000007F030CF5
:10126B00300C037F0000264949493200007F0204FD
:04127B0008107F00D8
:10127F00E4F5B1F5B1F5B3F5B4F5ACF5ADFF7EC25C
:10128F007D01FC121755438E0212155F750920154B
:10129F0008121AEDE4FBFDFF1217C87B01E4FD7F76
:1012AF00121217C87B02E4FD7F241217C87B03E4D8
:1012BF00FD7F361217C87B04E4FD7F481217C87BE9
:1012CF0005E4FD7F5A1217C87B06E4FD7F6C1217E9
:1012DF00C87B077D02E4FF1217C87B087D027F12CF
:1012EF001217C87BFF7A0A795B7D027F22121A37A9
:1012FF007BFF7A0A79677D047F14121A377BFF7A96
:10130F000A79727D06E4FF121A377BFF7A0A797920
:10131F007D067F3F121A37AB097D067F3012162AE2
:10132F000509E509D3947E4003750920E485090F6B
:10133F00F50EF50DF50C7510037511107D067F6711
:10134F001216D67FF47E01121BDD7FF47E01121B75
:10135F00DD7FF47E01121BDD7FF47E01121BDD7F2A
:10136F00F47E01121BDD121AED7FF47E01121BDDDC
:10137F00750D08750EFF750F0A75107F7B80E4FDE4
:10138F00FF1218A47FF47E01121BDD750D08750E78
:10139F00FF750F0E75107F7B80E4FDFF1218A47F81
:1013AF00F47E01121BDDC2927F2C7E017D007C003A
:1013BF00121906D2927F2C7E017D007C0012190635
:1013CF007F55121C2775ACFFE4F5ADF5ACF5AD30CC
:1013DF00B004D2908002C29074062508F50802125C
:0113EF009E5F
:0113F00022DA
:101AB60053B1BF53B2BF53B17F53B27F75985243F0
:101AC6008920438780438E1053C4DFAB07AA06A93B
:101AD60005A8047F407E427D0F7C001214A9EF0406
:071AE600F404F58DD28E22FD
:101755008F0D8E0C8D0B8C0A53B1BF53B2BF53B195
:101765007F53B27F75985243878053C4F843C42092
:10177500AB0DAA0CA90BA80A7F407E427D0F7C0009
:101785001214A9C374FF9FFF74FF9EFEE49DFDE440
:101795009CFC780812154C8FC6AB0DAA0CA90BA89A
:1017A5000A7F407E427D0F7C001214A9C374FF9FFF
:1017B500FF74FF9EFEE49DFDE49CFCEFE48FC543B2
:0317C500C4082233
:071C1F003098FDAF99C29857
:011C2600229B
:081C2700C2998F993099FD224A
:101837008F1E8E1D8D1C8C1B53B1FB53B2FB53B3F4
:10184700BF53B4BF75F85253C4F8AB1EAA1DA91CE9
:10185700A81B7F407E427D0F7C001214A9C374FF32
:101867009FFF74FF9EFEE49DFDE49CFC7808121523
:101877004C8FC6AB1EAA1DA91CA81B7F407E427DAC
:101887000F7C001214A9C374FF9FFF74FF9EFEE430
:0D1897009DFDE49CFCEFE48FC543C40822D6
:071C2F0030F8FDAF9AC2F886
:011C3600228B
:081C3700C2F98F9A30F9FD2279
:101BA200538EF7438901D28CEF4E6012758AF3751A
:101BB2008CFF308DFDC28DEF1F70011E80EAC28C3A
:011BC2002200
:1019A1008F248E238D228C21538EF7438901D28C73
:1019B100E4FFFEFDFCAB24AA23A922A821C3121532
:1019C1003B6025758ACA758CFA308DFDC28D74FF16
:1019D1002524F524E52334FFF523E52234FFF52200
:0B19E100E52134FFF52180C8C28C22F4
:1019EC008F288E278D268C25538EEF438910D28E0F
:1019FC00E4FFFEFDFCAB28AA27A926A825C31215D7
:101A0C003B6025758BCA758DFA308FFDC28F74FFC4
:101A1C002528F528E52734FFF527E52634FFF5269C
:0B1A2C00E52534FFF52580C8C28E229E
:101906008F0D8E0C8D0B8C0A53C9BF53C9DF43C98B
:1019160010D2CAE4FFFEFDFCAB0DAA0CA90BA80A67
:10192600C312153B602575CC6075CDF030CFFDC276
:10193600CF74FF250DF50DE50C34FFF50CE50B34E2
:0E194600FFF50BE50A34FFF50A80C8C2CA227D
:101954008F2C8E2B8D2A8C2975C40243C408E4FF76
:10196400FEFDFCAB2CAA2BA92AA829C312153B60A7
:101974002875C56075C6F0E5C430E4FB53C4EF7444
:10198400FF252CF52CE52B34FFF52BE52A34FFF548
:0D1994002AE52934FFF52980C553C4F72248
:03000000021BC31D
:101BC300787FE4F6D8FD9000007FFF7E03E4F0A366
:0A1BD300DFFCDEFA75812C02127FA0
:100003000000000000000000002F000000000700B7
:10001300070000147F147F1400242A7F2A12006231
:1000230064081323003649552250000005030000DD
:1000330000001C224100000041221C000014083E65
:1000430008140008083E0808000000A0600000082B
:10005300080808080000606000000020100804027F
:10006300003E5149453E0000427F4000004261513D
:100073004946002141454B31001814127F100027D7
:1000830045454539003C4A4949300001710905039A
:1000930000364949493600064949291E00003636CB
:1000A300000000005636000000081422410000142E
:1000B300141414140000412214080002015109060B
:1000C30000324959513E007C1211127C007F49498C
:1000D3004936003E41414122007F4141221C007FBD
:1000E30049494941007F09090901003E4149497ACB
:1000F300007F0808087F0000417F41000020404145
:100103003F01007F08142241007F40404040007FB0
:10011300020C027F007F0408107F003E4141413EF4
:10012300007F09090906003E4151215E007F09193C
:1001330029460046494949310001017F0101003F39
:100143004040403F001F2040201F003F4038403FB9
:10015300006314081463000708700807006151491D
:10016300454300007F41410000552A552A550000B0
:1001730041417F000004020102040040404040402E
:10018300000001020400002054545478007F4844C6
:10019300443800384444442000384444487F0038FD
:1001A3005454541800087E0901020018A4A4A47C26
:1001B300007F080404780000447D400000408084F0
:1001C3007D00007F102844000000417F4000007C38
:1001D30004180478007C0804047800384444443844
:1001E30000FC242424180018242418FC007C080490
:1001F300040800485454542000043F444020003C69
:100203004040207C001C2040201C003C4030403CEF
:10021300004428102844001CA0A0A07C004464547F
:100223004C441414141414140000000000000000C3
:100233000000000000000000000000F800000000C3
:10024300000000333000000000100C06100C060004
:10025300000000000000000040C07840C07840006B
:10026300043F04043F040400007088FC08300000CD
:10027300001820FF211E0000F008F000E018000025
:1002830000211C031E211E0000F0088870000000DE
:100293001E2123241927211010160E000000000030
:1002A3000000000000000000000000E0180402004D
:1002B300000000071820400000020418E0000000BE
:1002C3000040201807000000404080F080404000BC
:1002D3000202010F01020200000000F00000000012
:1002E3000101011F010101000000000000000000E6
:1002F30080B070000000000000000000000000005B
:1003030000010101010101010000000000000000E3
:10031300003030000000000000000000806018047E
:10032300006018060100000000E010080810E0005B
:10033300000F102020100F00001010F80000000024
:100343000020203F2020000000700808088870006B
:1003530000302824222130000030088888483000EB
:100363000018202020110E000000C02010F800000B
:1003730000070424243F240000F8088888080800A4
:100383000019212020110E0000E0108888180000B9
:10039300000F112020110E0000380808C83808008B
:1003A3000000003F0000000000708808088870000B
:1003B300001C222121221C0000E010080810E0008C
:1003C3000000312222110F00000000C0C000000015
:1003D300000000303000000000000080000000003A
:1003E3000000806000000000000080402010080032
:1003F30000010204081020004040404040404000FB
:1004030004040404040404000008102040800000D5
:100413000020100804020100007048080808F000DA
:100423000000003036010000C030C828E810E000AA
:100433000718272423140B000000C038E000000035
:10044300203C23020227382008F88888887000009F
:10045300203F202020110E00C03008080808380073
:10046300071820202010080008F808080810E000EA
:10047300203F202020100F0008F88888E80810008B
:10048300203F20202320180008F88888E80810005F
:10049300203F200003000000C03008080838000097
:1004A30007182020221E020008F808000008F80898
:1004B300203F210101213F20000808F8080800001F
:1004C3000020203F2020000000000808F808080052
:1004D300C08080807F00000008F888C028180800CA
:1004E300203F20012638200008F808000000000003
:1004F300203F20202020300008F8F800F8F80800FA
:10050300203F003F003F200008F830C00008F808F3
:10051300203F200007183F00E01008080810E00003
:100523000F10202020100F0008F808080808F0001A
:10053300203F210101010000E01008080810E0003D
:100543000F18242438504F0008F8888888887000D2
:10055300203F2000030C3020007088080808380072
:100563000038202121221C00180808F80808180068
:100573000000203F2000000008F808000008F808E9
:10058300001F202020201F000878880000C838089A
:10059300000007380E010000F80800F80008F80012
:1005A300033C0700073C03000818688080681808AC
:1005B30020302C03032C30200838C800C83808002A
:1005C3000000203F2000000010080808C838080079
:1005D3002038262120201800000000FE020202001D
:1005E3000000007F40404000000C30C000000000CD
:1005F300000000010638C00000020202FE000000F5
:10060300004040407F00000000000402020204009A
:1006130000000000000000000000000000000000D7
:1006230080808080808080800002020400000000BF
:1006330000000000000000000000808080800000B7
:100643000019242222223F2008F8008080000000A5
:10065300003F112020110E00000000808080000068
:10066300000E112020201100000000808088F80077
:10067300000E112020103F200000808080800000A9
:10068300001F222222221300008080F0888888180D
:100693000020203F20200000000080808080800018
:1006A300006B94949493600008F8008080800000AD
:1006B300203F210000203F20008098980000000088
:1006C3000020203F202000000000008098980000B8
:1006D30000C08080807F000008F8000080808000D8
:1006E300203F24022D302000000808F800000000FD
:1006F3000020203F202000008080808080808000B8
:10070300203F20003F20003F808000808080000049
:10071300203F210000203F200000808080800000D7
:10072300001F202020201F00808000808000000008
:1007330080FFA12020110E00000000808080800037
:10074300000E112020A0FF80808080008080800028
:1007530020203F2120000100000080808080800055
:100763000033242424241900008080E080800000CA
:100773000000001F20200000808000000080800017
:10078300001F202020103F20808080000080808078
:1007930000010E3008060100808000800080808008
:1007A3000F300C030C300F0000808000808080002D
:1007B3000020312E0E312000808080000080808058
:1007C30080818E7018060100008080808080800008
:1007D3000021302C2221300000000000807C020226
:1007E30000000000003F404000000000FF00000048
:1007F30000000000FF0000000002027C80000000F7
:100803000040403F00000000000601010202040412
:1008130000000000000000000000F010101010FFA6
:1008230010101010F0000000000000000000000095
:10083300000000000000000000000F04040404FF97
:10084300040404040F000000000000000000000086
:1008530000000000000000004040405F5555557502
:100863005555555F40404000000000000000000067
:1008730000000000000000000040200F09498979B2
:100883000909090F204000000000000000000000DB
:10089300000000000000000000FE02424ACA4A4A6B
:1008A300CA4A4A4202FE00000000000000000000A5
:1008B300000000000000000000FF40504C43404097
:1008C3004F50505C40FF000000000000000000009B
:1008D30000000000000000000000F888888888FFFE
:1008E30088888888F80000000000000000000000ED
:1008F300000000000000000000001F080808087F37
:10090300888888889F80F0000000000000000000B5
:10091300000000000000000080828282828282E266
:10092300A2928A86828080000000000000000000FE
:100933000000000000000000000000000040807F75
:1009430000000000000000000000000000000000A4
:1009530000000000000000002424A4FEA3220022C3
:10096300CC0000FF000000000000000000000000B9
:100973000000000000000000080601FF000104045D
:10098300040404FF02020200000000000000000053
:100993000000000000000000101010FF10900888F5
:1009A3008888FF8888880800000000000000000095
:1009B30000000000000000000444827F01808040AA
:1009C300432C102846818000000000000000000036
:1009D300000000000000000040445465C664544415
:1009E30000FC4444C442400000000000000000003A
:1009F300000000000000000020124A827F020A92D9
:100A0300601F0000FF000000000000000000000065
:100A130000000000000000000000FC445454545542
:100A2300FE545454F444440000000000000000004D
:100A3300000000000000000040300F00FD45454568
:100A430047454545FD000000000000000000000090
:080A530000000000000000009B
:101BDD00EF4E60157D087C07ED1DAA0470011C4AAF
:091BED0070F6EF1F70011E80E785
:011BF60022CC
:101B5100ED6004D2938002C293C295E4FEEEC39479
:101B6100085015C290EF30E704D2808002C280D2C3
:0C1B710090EF25E0FF0E80E5D295D293A6
:011B7D002245
:101B7E00AC07ED24B0FFE4FD121B51EC54F0FFC492
:101B8E00540F4410FFE4121B51EC540F4401FFE4B8
:041B9E00121B5122A3
:101BF700E4FD7F8D121B51E47F14121B51E47FAF6C
:041C0700121B512239
:101C0B00E4FD7F8D121B51E47F10121B51E47FAE5C
:041C1B00121B512225
:101AED00E4FCECC394085029EC24B0FFE4FD121B78
:101AFD0051E4FF121B51E47F10121B51E4FBEBC3A9
:101B0D009480500A7D01E4FF121B510B80F00C8074
:011B1D00D1F6
:011B1E0022A4
:101B1F00E4FCECC394085029EC24B0FFE4FD121B45
:101B2F0051E4FF121B51E47F10121B51E4FBEBC376
:101B3F009480500A7D017FFF121B510B80F00C80A7
:011B4F00D1C4
:011B50002272
:06162A008D15AA07AF03B5
:10163000E4F9FBEF24E0F9EAD3947F4006E4FA05ED
:10164000150515AF02AD15121B7EE4FBEBC3940824
:10165000502475F010E9A42BF582E435F0F583E50C
:1016600082242BF582E5833402F583E493FF7D0128
:10167000121B510B80D6AF02E51504FD121B7EE450
:10168000FBEBC39408504E75F010E9A42BF582E4EF
:1016900035F0F583E5822433F582E5833402F58362
:1016A000E493FF7D01121B510B80D6EBC3940650CF
:1016B0002475F006E9A42403F582E5F03400F583EF
:1016C000E5822BF582E43583F583E493FF7D0112F7
:0516D0001B510B80D648
:0116D50022F2
:041A7D008F158D161E
:101A8100E4751A01F519F518F517AF161516EF607B
:101A91001BAB1AAA19A918A817AF15E4FCFDFE1271
:101AA100141E8F1A8E198D188C1780DEAF1AAE197D
:041AB100AD18AC17A9
:011AB500220E
:0416D6008F0A8D0BDF
:1016DA00E4F514F512E512C39510506EC3E51095A2
:1016EA001214FD7F0A121A7DA804A905AA06AB07DF
:1016FA00AF0FAE0EAD0DAC0C1214A9E47B0AFAF9C9
:10170A00F81214A9AF038F13E5147025E51014FF1E
:10171A00E512C39F501BE5137014E511C31385121C
:10172A00F0A4250AFF7B20AD0B12162A8018751427
:10173A0001E511C3138512F0A4250AFFE51324302D
:0A174A00FBAD0B12162A0512808B6E
:011754002272
:0A1A37008F0A8D0B8B0C8A0D890EAF
:101A4100E4F50FAB0CAA0DA90E850F827583001268
:101A510013F16027850F827583001213F1FBAD0B23
:101A6100AF0A12162A7408250AF50AD3947840079A
:0B1A7100E4F50A050B050B050F80C80B
:011A7C002247
:0417C8008F0AAA05D5
:1017CC00E4F50B121B7EE4F9E9C39410502675F076
:1017DC0040EBA4241BF582E5F03408F583E582295F
:1017EC00F582E43583F583E493FF7D01121B5105EB
:1017FC000B0980D4EA04FDAF0A121B7EE4F9E9C39D
:10180C009410502675F040EBA4243BF582E5F0349F
:10181C0008F583E58229F582E43583F583E493FFAB
:0A182C007D01121B51050B0980D449
:01183600228F
:0418A4008F0A8B0C10
:1018A800E4F511F512E50D5407700BE50D1313134C
:1018B800541FF513800AE50D131313541F04F51371
:1018C8008D13E513C3950D5034AD13AF0A121B7E6B
:1018D800AC0AECC3950C5021AB0EAA0FA910051247
:1018E800E512AE117002051114F5828E831213F100
:0D18F800FF7D01121B510C80D9051380C526
:0119050022BF
:10155F00D2947F647E00121BDDC2947F647E0012E2
:10156F001BDDD294E4FD7FAE121B51E4FF121B5121
:10157F00E47F10121B51E47F40121B51E47F811254
:10158F001B51E47FCF121B51E47FA1121B51E47F4B
:10159F00C8121B51E47FA6121B51E47FA8121B51E6
:1015AF00E47F3F121B51E47FD3121B51E4FF121B48
:1015BF0051E47FD5121B51E47F80121B51E47FD978
:1015CF00121B51E47FF1121B51E47FDA121B51E41D
:1015DF007F12121B51E47FDB121B51E47F40121B61
:1015EF0051E47F20121B51E47F02121B51E47F8DC7
:1015FF00121B51E47F14121B51E47FA4121B51E400
:10160F007FA6121B51E47FAF121B51E47FAF121B59
:0B161F0051121AEDE4FDFF121B7E22A9
:1013F100BB010CE58229F582E5833AF583E02250B1
:1014010006E92582F8E622BBFE06E92582F8E222FA
:0D141100E58229F582E5833AF583E4932214
:10141E00E88FF0A4CC8BF0A42CFCE98EF0A42CFC6D
:10142E008AF0EDA42CFCEA8EF0A4CDA8F08BF0A4EB
:10143E002DCC3825F0FDE98FF0A42CCD35F0FCEB4A
:10144E008EF0A4FEA9F0EB8FF0A4CFC5F02ECD390F
:0F145E00FEE43CFCEAA42DCE35F0FDE43CFC227C
:10146D0075F008758200EF2FFFEE33FECD33CDCC36
:10147D0033CCC58233C5829BED9AEC99E5829840B9
:10148D000CF582EE9BFEED9AFDEC99FC0FD5F0D696
:10149D00E4CEFBE4CDFAE4CCF9A88222B800C1B9C0
:1014AD000059BA002DEC8BF084CFCECDFCE5F0CBFE
:1014BD00F97818EF2FFFEE33FEED33FDEC33FCEB37
:1014CD0033FB10D703994004EB99FB0FD8E5E4F9F2
:1014DD00FA227818EF2FFFEE33FEED33FDEC33FCDF
:1014ED00C933C910D7059BE99A4007EC9BFCE99AD3
:1014FD00F90FD8E0E4C9FAE4CCFB2275F010EF2F18
:10150D00FFEE33FEED33FDCC33CCC833C810D70717
:10151D009BEC9AE899400AED9BFDEC9AFCE899F852
:0E152D000FD5F0DAE4CDFBE4CCFAE4C8F922E5
:10153B00EB9FF5F0EA9E42F0E99D42F0E89C45F006
:01154B00227D
:10154C00E8600FECC313FCED13FDEE13FEEF13FF7D
:03155C00D8F122A1
:00000001FF
